:100000001301C0501304C050EF004008130000005B
:10001000130101FE232E1100232C8100232A9100BD
:10002000130401022326A4FE0327C4FE9307100035
:100030006308F7000327C4FE930720006316F70048
:10004000930710006F0000038327C4FE9387F7FF18
:1000500013850700EFF0DFFB930405008327C4FE40
:100060009387E7FF13850700EFF09FFA93070500DA
:10007000B387F400138507008320C10103248101A5
:10008000832441011301010267800000130101FE76
:10009000232E1100232C8100130401021305A0005C
:1000A000EFF01FF72326A4FE130000008320C101F8
:0C00B0000324810113010102678000009D
:00000001FF
